{
  "_format": "hh-sol-artifact-1",
  "contractName": "Medicus",
  "sourceName": "contracts/Medicus.sol",
  "abi": [
    {
      "inputs": [
        {
          "internalType": "uint256",
          "name": "_id",
          "type": "uint256"
        },
        {
          "internalType": "string",
          "name": "_description",
          "type": "string"
        }
      ],
      "name": "contributeToResearch",
      "outputs": [],
      "stateMutability": "nonpayable",
      "type": "function"
    },
    {
      "inputs": [
        {
          "internalType": "string",
          "name": "_title",
          "type": "string"
        },
        {
          "internalType": "string",
          "name": "_description",
          "type": "string"
        },
        {
          "internalType": "address[]",
          "name": "_researchers",
          "type": "address[]"
        }
      ],
      "name": "createPatent",
      "outputs": [],
      "stateMutability": "nonpayable",
      "type": "function"
    },
    {
      "inputs": [
        {
          "internalType": "uint256",
          "name": "_id",
          "type": "uint256"
        }
      ],
      "name": "crowdFund",
      "outputs": [],
      "stateMutability": "payable",
      "type": "function"
    },
    {
      "inputs": [],
      "name": "getResearch",
      "outputs": [
        {
          "components": [
            {
              "internalType": "string",
              "name": "title",
              "type": "string"
            },
            {
              "internalType": "uint256",
              "name": "id",
              "type": "uint256"
            },
            {
              "internalType": "string",
              "name": "description",
              "type": "string"
            },
            {
              "internalType": "address[]",
              "name": "researchers",
              "type": "address[]"
            },
            {
              "internalType": "uint256",
              "name": "funding",
              "type": "uint256"
            }
          ],
          "internalType": "struct Medicus.Research[]",
          "name": "",
          "type": "tuple[]"
        }
      ],
      "stateMutability": "view",
      "type": "function"
    },
    {
      "inputs": [
        {
          "internalType": "uint256",
          "name": "_id",
          "type": "uint256"
        }
      ],
      "name": "getResearch",
      "outputs": [
        {
          "components": [
            {
              "internalType": "string",
              "name": "title",
              "type": "string"
            },
            {
              "internalType": "uint256",
              "name": "id",
              "type": "uint256"
            },
            {
              "internalType": "string",
              "name": "description",
              "type": "string"
            },
            {
              "internalType": "address[]",
              "name": "researchers",
              "type": "address[]"
            },
            {
              "internalType": "uint256",
              "name": "funding",
              "type": "uint256"
            }
          ],
          "internalType": "struct Medicus.Research",
          "name": "",
          "type": "tuple"
        }
      ],
      "stateMutability": "view",
      "type": "function"
    },
    {
      "inputs": [
        {
          "internalType": "address",
          "name": "_address",
          "type": "address"
        }
      ],
      "name": "getResearcher",
      "outputs": [
        {
          "components": [
            {
              "internalType": "string",
              "name": "name",
              "type": "string"
            },
            {
              "internalType": "string",
              "name": "email",
              "type": "string"
            },
            {
              "internalType": "address",
              "name": "researcherAddress",
              "type": "address"
            }
          ],
          "internalType": "struct Medicus.Researcher",
          "name": "",
          "type": "tuple"
        }
      ],
      "stateMutability": "view",
      "type": "function"
    },
    {
      "inputs": [
        {
          "internalType": "uint256",
          "name": "",
          "type": "uint256"
        }
      ],
      "name": "patentSales",
      "outputs": [
        {
          "internalType": "uint256",
          "name": "id",
          "type": "uint256"
        },
        {
          "internalType": "uint256",
          "name": "amount",
          "type": "uint256"
        },
        {
          "internalType": "address",
          "name": "owner",
          "type": "address"
        }
      ],
      "stateMutability": "view",
      "type": "function"
    },
    {
      "inputs": [
        {
          "internalType": "string",
          "name": "_name",
          "type": "string"
        },
        {
          "internalType": "string",
          "name": "_email",
          "type": "string"
        }
      ],
      "name": "register",
      "outputs": [],
      "stateMutability": "nonpayable",
      "type": "function"
    },
    {
      "inputs": [],
      "name": "researchCount",
      "outputs": [
        {
          "internalType": "uint256",
          "name": "",
          "type": "uint256"
        }
      ],
      "stateMutability": "view",
      "type": "function"
    },
    {
      "inputs": [
        {
          "internalType": "address",
          "name": "",
          "type": "address"
        }
      ],
      "name": "researchers",
      "outputs": [
        {
          "internalType": "string",
          "name": "name",
          "type": "string"
        },
        {
          "internalType": "string",
          "name": "email",
          "type": "string"
        },
        {
          "internalType": "address",
          "name": "researcherAddress",
          "type": "address"
        }
      ],
      "stateMutability": "view",
      "type": "function"
    },
    {
      "inputs": [
        {
          "internalType": "uint256",
          "name": "",
          "type": "uint256"
        }
      ],
      "name": "researches",
      "outputs": [
        {
          "internalType": "string",
          "name": "title",
          "type": "string"
        },
        {
          "internalType": "uint256",
          "name": "id",
          "type": "uint256"
        },
        {
          "internalType": "string",
          "name": "description",
          "type": "string"
        },
        {
          "internalType": "uint256",
          "name": "funding",
          "type": "uint256"
        }
      ],
      "stateMutability": "view",
      "type": "function"
    },
    {
      "inputs": [
        {
          "internalType": "uint256",
          "name": "_id",
          "type": "uint256"
        }
      ],
      "name": "sellPatent",
      "outputs": [],
      "stateMutability": "nonpayable",
      "type": "function"
    }
  ],
  "bytecode": "0x6080604052600060035534801561001557600080fd5b5061157b806100256000396000f3fe6080604052600436106100a75760003560e01c80637e6fe97c116100645780637e6fe97c146101a15780638b42519714610209578063e3e02ba714610229578063e6146ec714610256578063e7eba4c214610269578063ec5d372a1461029657600080fd5b806301bc237d146100ac57806319a766c7146100e45780632e128e601461010b5780633ffbd47f1461012d5780635f7d07041461014d578063620d744d1461017d575b600080fd5b3480156100b857600080fd5b506100cc6100c7366004610ef0565b6102b6565b6040516100db93929190610f58565b60405180910390f35b3480156100f057600080fd5b506101096100ff366004610f96565b6000526002602052565b005b34801561011757600080fd5b506101206103f1565b6040516100db919061104b565b34801561013957600080fd5b50610109610148366004611164565b61066a565b34801561015957600080fd5b5061016d610168366004610f96565b6106e4565b6040516100db94939291906111c8565b34801561018957600080fd5b5061019360035481565b6040519081526020016100db565b3480156101ad57600080fd5b506101e56101bc366004610f96565b60026020819052600091825260409091208054600182015491909201546001600160a01b031683565b6040805193845260208401929092526001600160a01b0316908201526060016100db565b34801561021557600080fd5b50610109610224366004611205565b61081c565b34801561023557600080fd5b50610249610244366004610f96565b610927565b6040516100db9190611242565b610109610264366004610f96565b610b12565b34801561027557600080fd5b50610289610284366004610ef0565b610c7a565b6040516100db9190611255565b3480156102a257600080fd5b506101096102b13660046112b0565b610df7565b6000602081905290815260409020805481906102d1906113a4565b80601f01602080910402602001604051908101604052809291908181526020018280546102fd906113a4565b801561034a5780601f1061031f5761010080835404028352916020019161034a565b820191906000526020600020905b81548152906001019060200180831161032d57829003601f168201915b50505050509080600101805461035f906113a4565b80601f016020809104026020016040519081016040528092919081815260200182805461038b906113a4565b80156103d85780601f106103ad576101008083540402835291602001916103d8565b820191906000526020600020905b8154815290600101906020018083116103bb57829003601f168201915b505050600290930154919250506001600160a01b031683565b6060600060035467ffffffffffffffff811115610410576104106110ad565b60405190808252806020026020018201604052801561047357816020015b6104606040518060a0016040528060608152602001600081526020016060815260200160608152602001600081525090565b81526020019060019003908161042e5790505b50905060015b60035481116106645760008181526001602052604090819020815160a081019092528054829082906104aa906113a4565b80601f01602080910402602001604051908101604052809291908181526020018280546104d6906113a4565b80156105235780601f106104f857610100808354040283529160200191610523565b820191906000526020600020905b81548152906001019060200180831161050657829003601f168201915b5050505050815260200160018201548152602001600282018054610546906113a4565b80601f0160208091040260200160405190810160405280929190818152602001828054610572906113a4565b80156105bf5780601f10610594576101008083540402835291602001916105bf565b820191906000526020600020905b8154815290600101906020018083116105a257829003601f168201915b505050505081526020016003820180548060200260200160405190810160405280929190818152602001828054801561062157602002820191906000526020600020905b81546001600160a01b03168152600190910190602001808311610603575b50505050508152602001600482015481525050828281518110610646576106466113d8565b6020026020010181905250808061065c90611404565b915050610479565b50919050565b6040805160608101825283815260208082018490523382840181905260009081529081905291909120815181906106a1908261146c565b50602082015160018201906106b6908261146c565b5060409190910151600290910180546001600160a01b0319166001600160a01b039092169190911790555050565b6001602052600090815260409020805481906106ff906113a4565b80601f016020809104026020016040519081016040528092919081815260200182805461072b906113a4565b80156107785780601f1061074d57610100808354040283529160200191610778565b820191906000526020600020905b81548152906001019060200180831161075b57829003601f168201915b505050505090806001015490806002018054610793906113a4565b80601f01602080910402602001604051908101604052809291908181526020018280546107bf906113a4565b801561080c5780601f106107e15761010080835404028352916020019161080c565b820191906000526020600020905b8154815290600101906020018083116107ef57829003601f168201915b5050505050908060040154905084565b600082815260016020819052604082200154900361087b5760405162461bcd60e51b815260206004820152601760248201527614995cd9585c98da08191bd95cc81b9bdd08195e1a5cdd604a1b60448201526064015b60405180910390fd5b336000908152602081905260409020600201546001600160a01b03166108e35760405162461bcd60e51b815260206004820152601960248201527f5265736561726368657220646f6573206e6f74206578697374000000000000006044820152606401610872565b600082815260016020818152604083206003810180549384018155845292200180546001600160a01b0319163317905560028101610921838261146c565b50505050565b6109596040518060a0016040528060608152602001600081526020016060815260200160608152602001600081525090565b60008281526001602052604090819020815160a08101909252805482908290610981906113a4565b80601f01602080910402602001604051908101604052809291908181526020018280546109ad906113a4565b80156109fa5780601f106109cf576101008083540402835291602001916109fa565b820191906000526020600020905b8154815290600101906020018083116109dd57829003601f168201915b5050505050815260200160018201548152602001600282018054610a1d906113a4565b80601f0160208091040260200160405190810160405280929190818152602001828054610a49906113a4565b8015610a965780601f10610a6b57610100808354040283529160200191610a96565b820191906000526020600020905b815481529060010190602001808311610a7957829003601f168201915b5050505050815260200160038201805480602002602001604051908101604052809291908181526020018280548015610af857602002820191906000526020600020905b81546001600160a01b03168152600190910190602001808311610ada575b505050505081526020016004820154815250509050919050565b60003411610b625760405162461bcd60e51b815260206004820152601860248201527f596f75206d7573742073656e6420736f6d6520657468657200000000000000006044820152606401610872565b6000818152600160208190526040822001549003610bbc5760405162461bcd60e51b815260206004820152601760248201527614995cd9585c98da08191bd95cc81b9bdd08195e1a5cdd604a1b6044820152606401610872565b604051600090309034908381818185875af1925050503d8060008114610bfe576040519150601f19603f3d011682016040523d82523d6000602084013e610c03565b606091505b5050905080610c4b5760405162461bcd60e51b81526020600482015260146024820152732330b4b632b2103a379039b2b7321032ba3432b960611b6044820152606401610872565b60008281526001602052604081206004810154909190610c6c90349061152c565b600490920191909155505050565b604080516060808201835280825260208201526000918101919091526001600160a01b03821660009081526020819052604090819020815160608101909252805482908290610cc8906113a4565b80601f0160208091040260200160405190810160405280929190818152602001828054610cf4906113a4565b8015610d415780601f10610d1657610100808354040283529160200191610d41565b820191906000526020600020905b815481529060010190602001808311610d2457829003601f168201915b50505050508152602001600182018054610d5a906113a4565b80601f0160208091040260200160405190810160405280929190818152602001828054610d86906113a4565b8015610dd35780601f10610da857610100808354040283529160200191610dd3565b820191906000526020600020905b815481529060010190602001808311610db657829003601f168201915b5050509183525050600291909101546001600160a01b031660209091015292915050565b60006003546001610e08919061152c565b600081815260016020526040902090915080610e24868261146c565b506001810182905560028101610e3a858261146c565b508251610e509060038301906020860190610e5a565b5050600355505050565b828054828255906000526020600020908101928215610eaf579160200282015b82811115610eaf57825182546001600160a01b0319166001600160a01b03909116178255602090920191600190910190610e7a565b50610ebb929150610ebf565b5090565b5b80821115610ebb5760008155600101610ec0565b80356001600160a01b0381168114610eeb57600080fd5b919050565b600060208284031215610f0257600080fd5b610f0b82610ed4565b9392505050565b6000815180845260005b81811015610f3857602081850181015186830182015201610f1c565b506000602082860101526020601f19601f83011685010191505092915050565b606081526000610f6b6060830186610f12565b8281036020840152610f7d8186610f12565b91505060018060a01b0383166040830152949350505050565b600060208284031215610fa857600080fd5b5035919050565b6000815160a08452610fc460a0850182610f12565b90506020808401518186015260408401518583036040870152610fe78382610f12565b606086810151888303918901919091528051808352908401945060009250908301905b808310156110335784516001600160a01b0316825293830193600192909201919083019061100a565b50608086015160808801528094505050505092915050565b6000602080830181845280855180835260408601915060408160051b870101925083870160005b828110156110a057603f1988860301845261108e858351610faf565b94509285019290850190600101611072565b5092979650505050505050565b634e487b7160e01b600052604160045260246000fd5b604051601f8201601f1916810167ffffffffffffffff811182821017156110ec576110ec6110ad565b604052919050565b600082601f83011261110557600080fd5b813567ffffffffffffffff81111561111f5761111f6110ad565b611132601f8201601f19166020016110c3565b81815284602083860101111561114757600080fd5b816020850160208301376000918101602001919091529392505050565b6000806040838503121561117757600080fd5b823567ffffffffffffffff8082111561118f57600080fd5b61119b868387016110f4565b935060208501359150808211156111b157600080fd5b506111be858286016110f4565b9150509250929050565b6080815260006111db6080830187610f12565b85602084015282810360408401526111f38186610f12565b91505082606083015295945050505050565b6000806040838503121561121857600080fd5b82359150602083013567ffffffffffffffff81111561123657600080fd5b6111be858286016110f4565b602081526000610f0b6020830184610faf565b6020815260008251606060208401526112716080840182610f12565b90506020840151601f1984830301604085015261128e8282610f12565b604095909501516001600160a01b031660609490940193909352509192915050565b6000806000606084860312156112c557600080fd5b833567ffffffffffffffff808211156112dd57600080fd5b6112e9878388016110f4565b945060209150818601358181111561130057600080fd5b61130c888289016110f4565b94505060408601358181111561132157600080fd5b8601601f8101881361133257600080fd5b803582811115611344576113446110ad565b8060051b92506113558484016110c3565b818152928201840192848101908a85111561136f57600080fd5b928501925b848410156113945761138584610ed4565b82529285019290850190611374565b8096505050505050509250925092565b600181811c908216806113b857607f821691505b60208210810361066457634e487b7160e01b600052602260045260246000fd5b634e487b7160e01b600052603260045260246000fd5b634e487b7160e01b600052601160045260246000fd5b600060018201611416576114166113ee565b5060010190565b601f82111561146757600081815260208120601f850160051c810160208610156114445750805b601f850160051c820191505b8181101561146357828155600101611450565b5050505b505050565b815167ffffffffffffffff811115611486576114866110ad565b61149a8161149484546113a4565b8461141d565b602080601f8311600181146114cf57600084156114b75750858301515b600019600386901b1c1916600185901b178555611463565b600085815260208120601f198616915b828110156114fe578886015182559484019460019091019084016114df565b508582101561151c5787850151600019600388901b60f8161c191681555b5050505050600190811b01905550565b8082018082111561153f5761153f6113ee565b9291505056fea26469706673582212205c9341d187c5f1c945a876e9687f503ab048222b1c8f0cb87b8d9f176f778f0964736f6c63430008110033",
  "linkReferences": {},
  "deployedLinkReferences": {}
}