{
  "_format": "hh-sol-artifact-1",
  "contractName": "Medicus",
  "sourceName": "contracts/Medicus.sol",
  "abi": [
    {
      "inputs": [
        {
          "internalType": "uint256",
          "name": "_id",
          "type": "uint256"
        },
        {
          "internalType": "string",
          "name": "_organization",
          "type": "string"
        }
      ],
      "name": "buyPatent",
      "outputs": [],
      "stateMutability": "payable",
      "type": "function"
    },
    {
      "inputs": [
        {
          "internalType": "uint256",
          "name": "",
          "type": "uint256"
        }
      ],
      "name": "collaborations",
      "outputs": [
        {
          "internalType": "string",
          "name": "title",
          "type": "string"
        },
        {
          "internalType": "uint256",
          "name": "id",
          "type": "uint256"
        },
        {
          "internalType": "string",
          "name": "description",
          "type": "string"
        },
        {
          "internalType": "string",
          "name": "uri",
          "type": "string"
        },
        {
          "internalType": "address",
          "name": "admin",
          "type": "address"
        },
        {
          "internalType": "string",
          "name": "profile",
          "type": "string"
        }
      ],
      "stateMutability": "view",
      "type": "function"
    },
    {
      "inputs": [
        {
          "internalType": "uint256",
          "name": "_id",
          "type": "uint256"
        },
        {
          "internalType": "string",
          "name": "_description",
          "type": "string"
        }
      ],
      "name": "contributeToResearch",
      "outputs": [],
      "stateMutability": "nonpayable",
      "type": "function"
    },
    {
      "inputs": [
        {
          "internalType": "string",
          "name": "_name",
          "type": "string"
        },
        {
          "internalType": "string",
          "name": "_description",
          "type": "string"
        },
        {
          "internalType": "string",
          "name": "_uri",
          "type": "string"
        },
        {
          "internalType": "string",
          "name": "_profile",
          "type": "string"
        }
      ],
      "name": "createCollaboration",
      "outputs": [],
      "stateMutability": "nonpayable",
      "type": "function"
    },
    {
      "inputs": [
        {
          "internalType": "string",
          "name": "_title",
          "type": "string"
        },
        {
          "internalType": "string",
          "name": "_description",
          "type": "string"
        },
        {
          "internalType": "string",
          "name": "_organization",
          "type": "string"
        },
        {
          "internalType": "string",
          "name": "_uri",
          "type": "string"
        },
        {
          "internalType": "address",
          "name": "_admin",
          "type": "address"
        },
        {
          "internalType": "string",
          "name": "_profile",
          "type": "string"
        }
      ],
      "name": "createPatent",
      "outputs": [],
      "stateMutability": "nonpayable",
      "type": "function"
    },
    {
      "inputs": [
        {
          "internalType": "uint256",
          "name": "_id",
          "type": "uint256"
        }
      ],
      "name": "crowdFund",
      "outputs": [],
      "stateMutability": "payable",
      "type": "function"
    },
    {
      "inputs": [],
      "name": "getCollaborations",
      "outputs": [
        {
          "components": [
            {
              "internalType": "string",
              "name": "title",
              "type": "string"
            },
            {
              "internalType": "uint256",
              "name": "id",
              "type": "uint256"
            },
            {
              "internalType": "address[]",
              "name": "collaborators",
              "type": "address[]"
            },
            {
              "internalType": "string",
              "name": "description",
              "type": "string"
            },
            {
              "internalType": "string",
              "name": "uri",
              "type": "string"
            },
            {
              "internalType": "address",
              "name": "admin",
              "type": "address"
            },
            {
              "internalType": "string",
              "name": "profile",
              "type": "string"
            }
          ],
          "internalType": "struct Medicus.Collaboration[]",
          "name": "",
          "type": "tuple[]"
        }
      ],
      "stateMutability": "view",
      "type": "function"
    },
    {
      "inputs": [],
      "name": "getPatentsOnsale",
      "outputs": [
        {
          "components": [
            {
              "internalType": "uint256",
              "name": "id",
              "type": "uint256"
            },
            {
              "internalType": "uint256",
              "name": "patentId",
              "type": "uint256"
            },
            {
              "internalType": "string",
              "name": "name",
              "type": "string"
            },
            {
              "internalType": "uint256",
              "name": "amount",
              "type": "uint256"
            },
            {
              "internalType": "address",
              "name": "owner",
              "type": "address"
            },
            {
              "internalType": "string",
              "name": "profile",
              "type": "string"
            }
          ],
          "internalType": "struct Medicus.PatentSale[]",
          "name": "",
          "type": "tuple[]"
        }
      ],
      "stateMutability": "view",
      "type": "function"
    },
    {
      "inputs": [],
      "name": "getResearch",
      "outputs": [
        {
          "components": [
            {
              "internalType": "string",
              "name": "title",
              "type": "string"
            },
            {
              "internalType": "uint256",
              "name": "id",
              "type": "uint256"
            },
            {
              "internalType": "string",
              "name": "description",
              "type": "string"
            },
            {
              "internalType": "address",
              "name": "admin",
              "type": "address"
            },
            {
              "internalType": "uint256",
              "name": "funding",
              "type": "uint256"
            },
            {
              "internalType": "string",
              "name": "organization",
              "type": "string"
            },
            {
              "internalType": "string",
              "name": "researchURI",
              "type": "string"
            },
            {
              "internalType": "string",
              "name": "profile",
              "type": "string"
            }
          ],
          "internalType": "struct Medicus.Research[]",
          "name": "",
          "type": "tuple[]"
        }
      ],
      "stateMutability": "view",
      "type": "function"
    },
    {
      "inputs": [
        {
          "internalType": "uint256",
          "name": "_id",
          "type": "uint256"
        }
      ],
      "name": "getResearch",
      "outputs": [
        {
          "components": [
            {
              "internalType": "string",
              "name": "title",
              "type": "string"
            },
            {
              "internalType": "uint256",
              "name": "id",
              "type": "uint256"
            },
            {
              "internalType": "string",
              "name": "description",
              "type": "string"
            },
            {
              "internalType": "address",
              "name": "admin",
              "type": "address"
            },
            {
              "internalType": "uint256",
              "name": "funding",
              "type": "uint256"
            },
            {
              "internalType": "string",
              "name": "organization",
              "type": "string"
            },
            {
              "internalType": "string",
              "name": "researchURI",
              "type": "string"
            },
            {
              "internalType": "string",
              "name": "profile",
              "type": "string"
            }
          ],
          "internalType": "struct Medicus.Research",
          "name": "",
          "type": "tuple"
        }
      ],
      "stateMutability": "view",
      "type": "function"
    },
    {
      "inputs": [
        {
          "internalType": "address",
          "name": "_address",
          "type": "address"
        }
      ],
      "name": "getResearcher",
      "outputs": [
        {
          "components": [
            {
              "internalType": "string",
              "name": "name",
              "type": "string"
            },
            {
              "internalType": "string",
              "name": "email",
              "type": "string"
            },
            {
              "internalType": "address",
              "name": "researcherAddress",
              "type": "address"
            }
          ],
          "internalType": "struct Medicus.Researcher",
          "name": "",
          "type": "tuple"
        }
      ],
      "stateMutability": "view",
      "type": "function"
    },
    {
      "inputs": [
        {
          "internalType": "uint256",
          "name": "_id",
          "type": "uint256"
        }
      ],
      "name": "joinCollaboration",
      "outputs": [],
      "stateMutability": "nonpayable",
      "type": "function"
    },
    {
      "inputs": [],
      "name": "patentSaleCount",
      "outputs": [
        {
          "internalType": "uint256",
          "name": "",
          "type": "uint256"
        }
      ],
      "stateMutability": "view",
      "type": "function"
    },
    {
      "inputs": [
        {
          "internalType": "uint256",
          "name": "",
          "type": "uint256"
        }
      ],
      "name": "patentSales",
      "outputs": [
        {
          "internalType": "uint256",
          "name": "id",
          "type": "uint256"
        },
        {
          "internalType": "uint256",
          "name": "patentId",
          "type": "uint256"
        },
        {
          "internalType": "string",
          "name": "name",
          "type": "string"
        },
        {
          "internalType": "uint256",
          "name": "amount",
          "type": "uint256"
        },
        {
          "internalType": "address",
          "name": "owner",
          "type": "address"
        },
        {
          "internalType": "string",
          "name": "profile",
          "type": "string"
        }
      ],
      "stateMutability": "view",
      "type": "function"
    },
    {
      "inputs": [
        {
          "internalType": "string",
          "name": "_name",
          "type": "string"
        },
        {
          "internalType": "string",
          "name": "_email",
          "type": "string"
        }
      ],
      "name": "register",
      "outputs": [],
      "stateMutability": "nonpayable",
      "type": "function"
    },
    {
      "inputs": [],
      "name": "researchCount",
      "outputs": [
        {
          "internalType": "uint256",
          "name": "",
          "type": "uint256"
        }
      ],
      "stateMutability": "view",
      "type": "function"
    },
    {
      "inputs": [
        {
          "internalType": "address",
          "name": "",
          "type": "address"
        }
      ],
      "name": "researchers",
      "outputs": [
        {
          "internalType": "string",
          "name": "name",
          "type": "string"
        },
        {
          "internalType": "string",
          "name": "email",
          "type": "string"
        },
        {
          "internalType": "address",
          "name": "researcherAddress",
          "type": "address"
        }
      ],
      "stateMutability": "view",
      "type": "function"
    },
    {
      "inputs": [
        {
          "internalType": "uint256",
          "name": "",
          "type": "uint256"
        }
      ],
      "name": "researches",
      "outputs": [
        {
          "internalType": "string",
          "name": "title",
          "type": "string"
        },
        {
          "internalType": "uint256",
          "name": "id",
          "type": "uint256"
        },
        {
          "internalType": "string",
          "name": "description",
          "type": "string"
        },
        {
          "internalType": "address",
          "name": "admin",
          "type": "address"
        },
        {
          "internalType": "uint256",
          "name": "funding",
          "type": "uint256"
        },
        {
          "internalType": "string",
          "name": "organization",
          "type": "string"
        },
        {
          "internalType": "string",
          "name": "researchURI",
          "type": "string"
        },
        {
          "internalType": "string",
          "name": "profile",
          "type": "string"
        }
      ],
      "stateMutability": "view",
      "type": "function"
    },
    {
      "inputs": [
        {
          "internalType": "uint256",
          "name": "_id",
          "type": "uint256"
        },
        {
          "internalType": "uint256",
          "name": "_amount",
          "type": "uint256"
        }
      ],
      "name": "sellPatent",
      "outputs": [],
      "stateMutability": "nonpayable",
      "type": "function"
    }
  ],
  "bytecode": "0x6080806040523461001657612565908161001c8239f35b600080fdfe604060808152600436101561001357600080fd5b60003560e01c806301bc237d14611a1c57806303edeabb146119fd57806306ded1fa1461182757806325f63feb146116935780632e128e601461157b5780633ffbd47f146112ce5780634b254f68146112135780635f7d070414611134578063620d744d1461111557806375febcb2146110e75780637e6fe97c146110575780638b42519714610ea957806396814a1014610959578063c355cc54146106b3578063e3e02ba714610666578063e6146ec714610581578063e6523d0514610264578063e757921c146101b15763e7eba4c2146100ee57600080fd5b346101ac57602090816003193601126101ac5760609161010c611a9a565b600083805161011a81611b05565b8681528685820152015260018060a01b03809116600052600082526101a08360002084519461014886611b05565b61015182611b78565b865261018d84600261016560018601611b78565b94888a01958652015416958288019687528251988998828a5251918901526080880190611c1e565b915190601f198784030190870152611c1e565b91511660608301520390f35b600080fd5b346101ac5760c03660031901126101ac576001600160401b036004358181116101ac576101e2903690600401611c79565b6024358281116101ac576101fa903690600401611c79565b6044358381116101ac57610212903690600401611c79565b6064358481116101ac5761022a903690600401611c79565b608435929091906001600160a01b03841684036101ac5760a4359586116101ac5761025c610262963690600401611c79565b94611d81565b005b50346101ac57806003193601126101ac5760043590600654916001830180931161056b5780600052600160205261029d8260002061242f565b60608101519092906001600160a01b03163303610537578360005260056020526000209283556024356003840155600183015580518051906001600160401b03821161045a576102f06002850154611ab0565b601f81116104ec575b50602090601f831160011461047b5760e093929160009183610470575b50508160011b916000199060031b1c19161760028401555b015190600581018251926001600160401b03841161045a576103508254611ab0565b601f8111610412575b50602090601f85116001146103a857600494916000918361039d575b50508160011b916000199060031b1c19161790555b0180546001600160a01b03191633179055005b015190503880610375565b90601f198516918360005260206000209260005b8181106103fa575091600193918760049894106103e1575b505050811b01905561038a565b015160001960f88460031b161c191690553880806103d4565b929360206001819287860151815501950193016103bc565b826000526020600020601f860160051c81019160208710610450575b601f0160051c01905b8181106104445750610359565b60008155600101610437565b909150819061042e565b634e487b7160e01b600052604160045260246000fd5b015190503880610316565b90601f198316916002860160005260206000209260005b8181106104d4575091600193918560e0979694106104bb575b505050811b01600284015561032e565b015160001960f88460031b161c191690553880806104ab565b92936020600181928786015181550195019301610492565b600285016000526020600020601f840160051c8101916020851061052d575b601f0160051c01905b81811061052157506102f9565b60008155600101610514565b909150819061050b565b5162461bcd60e51b815260206004820152600e60248201526d139bdd08105d5d1a1bdc9a5e995960921b6044820152606490fd5b634e487b7160e01b600052601160045260246000fd5b5060203660031901126101ac57600435903415610623578160005260016020526105b3600182600020015415156123b3565b600080808034305af16105c46123ff565b50156105e95760049160005260016020526000200180549034820180921161056b5755005b5162461bcd60e51b81526020600482015260146024820152732330b4b632b2103a379039b2b7321032ba3432b960611b6044820152606490fd5b5162461bcd60e51b815260206004820152601860248201527f596f75206d7573742073656e6420736f6d6520657468657200000000000000006044820152606490fd5b50346101ac5760203660031901126101ac576106af906106846124b5565b50600435600052600160205261069c8160002061242f565b9051918291602083526020830190611cf2565b0390f35b50346101ac5760003660031901126101ac57600454906106d2826124f5565b916106df82519384611b57565b808352601f196106ee826124f5565b0160005b81811061091757505060015b81811115610818578251602080825285518183018190528187019291600582901b8301870191906000848901895b8483106107395786860387f35b9091929394603f1987820301835284885161075d815160e0855260e0850190611c1e565b82820151838501528482015190848103868601528380835192838152019201906000905b8082106107f55750505060019383926107c06107ad6107e4946060808501519086830390870152611c1e565b6080808401519085830390860152611c1e565b9160a0878060a01b0381840151169082015260c08092015191818403910152611c1e565b99019301930191969493929061072c565b82516001600160a01b031684528a95938401939092019160019190910190610781565b80600052600360208181528460002060001984019284841161056b5786519261084084611b20565b61084983611b78565b8452600183015481850152600283018851809280835492838152019260005280600020916000915b8183106108f757505050506108f29695936108a76108ec96948461089c6108d6966006960382611b57565b8c8701528201611b78565b60608501526108b860048201611b78565b608085015260058101546001600160a01b031660a085015201611b78565b60c08201526108e5828961251b565b528661251b565b5061250c565b6106fe565b83546001600160a01b031685529384019360019384019390920191610871565b602090845161092581611b20565b6060808252839060008284015280888401528080840152806080840152600060a084015260c08301528288010152016106f2565b50346101ac5760803660031901126101ac576004356001600160401b0381116101ac5761098a903690600401611c79565b906024356001600160401b0381116101ac576109aa903690600401611c79565b906044356001600160401b0381116101ac576109ca903690600401611c79565b6064356001600160401b0381116101ac576109e9903690600401611c79565b936004549260018401841161056b576001840160005260036020526000209281516001600160401b03811161045a57610a228554611ab0565b601f8111610e63575b50806020601f8211600114610dff57600091610df4575b508160011b916000199060031b1c19161784555b6005840190336001600160601b0360a01b83541617825560018101600186015585516001600160401b03811161045a57610a936003870154611ab0565b601f8111610dad575b50806020601f8211600114610d4057600091610d35575b508160011b916000199060031b1c19161760038601555b83516001600160401b03811161045a57610ae76004870154611ab0565b601f8111610cee575b50806020601f8211600114610c8157600091610c76575b508160011b916000199060031b1c19161760048601555b86516001600160401b03811161045a57610b3b6006870154611ab0565b601f8111610c2b575b506020601f8211600114610bb45760069282610ba295936001936102629c600092610ba9575b5050600019600383901b1c191690831b17888501555b01600455610b913360028801612356565b546001600160a01b03169401611b78565b9381611d81565b015190503880610b6a565b601f198216986006880160005260206000209960005b818110610c135750836102629b60019460069794610ba29997879510610bfa575b505050811b0184890155610b80565b015160001960f88460031b161c19169055388080610beb565b838301518c556001909b019a60209384019301610bca565b600687016000526020600020601f830160051c81019160208410610c6c575b601f0160051c01905b818110610c605750610b44565b60008155600101610c53565b9091508190610c4a565b905085015138610b07565b91506004870160005260206000206000925b601f1983168410610cd6576001935082601f19811610610cbd575b5050811b016004860155610b1e565b87015160001960f88460031b161c191690553880610cae565b87810151825560209384019360019092019101610c93565b600487016000526020600020601f830160051c810160208410610d2e575b601f830160051c82018110610d22575050610af0565b60008155600101610d0c565b5080610d0c565b905087015138610ab3565b91506003870160005260206000206000925b601f1983168410610d95576001935082601f19811610610d7c575b5050811b016003860155610aca565b89015160001960f88460031b161c191690553880610d6d565b89810151825560209384019360019092019101610d52565b600387016000526020600020601f830160051c810160208410610ded575b601f830160051c82018110610de1575050610a9c565b60008155600101610dcb565b5080610dcb565b905083015138610a42565b6000878152602081209250601f198416905b818110610e4b57509083600194939210610e32575b5050811b018455610a56565b85015160001960f88460031b161c191690553880610e26565b9192602060018192868a015181550194019201610e11565b856000526020600020601f830160051c810160208410610ea2575b601f90920160051c01905b818110610e965750610a2b565b60008155600101610e89565b5080610e7e565b50346101ac57610eb836611cc0565b81600093929352600191602093838552610ed98483600020015415156123b3565b336000908152808652829020600201546001600160a01b031615611013579060029160005283855260002001928151916001600160401b03831161045a57610f218554611ab0565b601f8111610fca575b5081601f8411600114610f675750928293918392600094610f5c575b50501b916000199060031b1c1916179055600080f35b015192503880610f46565b919083601f1981168760005284600020946000905b88838310610fb05750505010610f97575b505050811b019055005b015160001960f88460031b161c19169055388080610f8d565b858701518855909601959485019487935090810190610f7c565b8560005282600020601f850160051c810191848610611009575b601f0160051c019085905b828110610ffd575050610f2a565b60008155018590610fef565b9091508190610fe4565b815162461bcd60e51b815260048101869052601960248201527f5265736561726368657220646f6573206e6f74206578697374000000000000006044820152606490fd5b50346101ac5760203660031901126101ac576004356000526005602052806000206106af81549160018101549361109060028301611b78565b916110cf60038201549360c06110b5600560018060a01b036004870154169501611b78565b948051998a998a5260208a015288015260c0870190611c1e565b926060860152608085015283820360a0850152611c1e565b50346101ac5760203660031901126101ac576002610262916004356000526003602052600020013390612356565b50346101ac5760003660031901126101ac576020906002549051908152f35b50346101ac5760203660031901126101ac576111d06106af60209260043560005260018452611205816000206111f761116c82611b78565b60018301549461117e60028501611b78565b6111df60018060a01b03600387015416936004870154926111a160058901611b78565b946111ba60076111b360068c01611b78565b9a01611b78565b9a81519e8f9e8f95610100808852870190611c1e565b9401528c8303908d0152611c1e565b9260608a0152608089015287820360a0890152611c1e565b9085820360c0870152611c1e565b9083820360e0850152611c1e565b50346101ac5760203660031901126101ac5761129b9060043560005260036020526106af8160002061124481611b78565b926112bb60018301546112ad61125c60038601611b78565b9161126960048701611b78565b60058701546001600160a01b03169690939061128790600601611b78565b9580519a8b9a60c08c5260c08c0190611c1e565b9260208b0152898303908a0152611c1e565b908682036060880152611c1e565b91608085015283820360a0850152611c1e565b50346101ac57806003193601126101ac576001600160401b03906004358281116101ac57611300903690600401611c79565b6024358381116101ac57611318903690600401611c79565b82519161132483611b05565b825260208083019182528383019333855233600052600082526000209251805186811161045a57806113568654611ab0565b92601f9384811161152c575b5084908483116001146114c7576000926114bc575b50508160011b916000199060031b1c19161784555b600191828501935190815197881161045a576113a88554611ab0565b838111611476575b508092881160011461140f5750958092819260029798600094611404575b50501b916000199060031b1c19161790555b9151910180546001600160a01b0319166001600160a01b0392909216919091179055005b0151925038806113ce565b909691601f198316978560005282600020926000905b8a821061145f575050836002989910611446575b505050811b0190556113e0565b015160001960f88460031b161c19169055388080611439565b808785968294968601518155019501930190611425565b856000528160002084808b0160051c820192848c106114b3575b0160051c019085905b8281106114a75750506113b0565b60008155018590611499565b92508192611490565b015190503880611377565b60008881528681209350601f198516905b878282106115165750509084600195949392106114fd575b505050811b01845561138c565b015160001960f88460031b161c191690553880806114f0565b60018596829396860151815501950193016114d8565b90915086600052846000208480850160051c820192878610611572575b9085949392910160051c01905b8181106115635750611362565b60008155849350600101611556565b92508192611549565b50346101ac5760003660031901126101ac576002549061159a826124f5565b916115a782519384611b57565b808352601f196115b6826124f5565b0160005b818110611676575050600190815b81811115611630575050815191602080840190808552855180925280838601938360051b8701019601926000905b8382106116035786880387f35b9091929394838061161f839a603f198b82030186528951611cf2565b9997019594939190910191016115f6565b8060009593955284602052836000209060001981019181831161056b5761166e9261165d6108ec9261242f565b611667828861251b565b528561251b565b9391936115c8565b6020906116849593956124b5565b828286010152019391936115ba565b5061169d36611cc0565b91906000526020916005835281600020916004830190600080808060018060a01b0386541634905af16116ce6123ff565b50156117f257906005916001600160601b0360a01b913383825416179055600180950154600052848652600020906003820190339082541617905501928151916001600160401b03831161045a576117268554611ab0565b601f81116117a9575b5081601f84116001146117605750928293918392600094610f5c5750501b916000199060031b1c1916179055600080f35b919083601f1981168760005284600020946000905b8883831061178f5750505010610f9757505050811b019055005b858701518855909601959485019487935090810190611775565b8560005282600020601f850160051c8101918486106117e8575b601f0160051c019085905b8281106117dc57505061172f565b600081550185906117ce565b90915081906117c3565b5162461bcd60e51b815260048101859052600f60248201526e141d5c98da185cd94811985a5b1959608a1b6044820152606490fd5b50346101ac5760003660031901126101ac5760065490611846826124f5565b9161185382519384611b57565b808352601f19611862826124f5565b0160005b8181106119ba575050600190815b8181111561192b57505081519160208084019080855285518092528285019281818460051b8801019701936000915b8483106118b05787890388f35b9091929394958480611919839b603f198c82030187528a518051825283810151848301526118ea8782015160c0808a860152840190611c1e565b9160608083015190820152608060018060a01b0381840151169082015260a08092015191818403910152611c1e565b9a9801969594919091019201906118a3565b80600095939552600590602091808352856000209260001983019083821161056b576119a36108ec936119b2968a519361196485611aea565b815485528c8201549085015261197c60028201611b78565b848c01526003810154606085015260048101546001600160a01b0316608085015201611b78565b60a0820152611667828861251b565b939193611874565b60209084959395516119cb81611aea565b6000815282600081830152606080888401526000818401526000608084015260a0830152828601015201939193611866565b50346101ac5760003660031901126101ac576020906006549051908152f35b50346101ac5760203660031901126101ac57611a84906001600160a01b039081611a44611a9a565b16600052600060205280600020611a92611a5d82611b78565b936002611a6c60018501611b78565b93015416918351958695606087526060870190611c1e565b908582036020870152611c1e565b918301520390f35b600435906001600160a01b03821682036101ac57565b90600182811c92168015611ae0575b6020831014611aca57565b634e487b7160e01b600052602260045260246000fd5b91607f1691611abf565b60c081019081106001600160401b0382111761045a57604052565b606081019081106001600160401b0382111761045a57604052565b60e081019081106001600160401b0382111761045a57604052565b61010081019081106001600160401b0382111761045a57604052565b90601f801991011681019081106001600160401b0382111761045a57604052565b9060405191826000825492611b8c84611ab0565b908184526001948581169081600014611bfb5750600114611bb8575b5050611bb692500383611b57565b565b9093915060005260209081600020936000915b818310611be3575050611bb693508201013880611ba8565b85548884018501529485019487945091830191611bcb565b915050611bb694506020925060ff191682840152151560051b8201013880611ba8565b919082519283825260005b848110611c4a575050826000602080949584010152601f8019910116010190565b602081830181015184830182015201611c29565b6001600160401b03811161045a57601f01601f191660200190565b81601f820112156101ac57803590611c9082611c5e565b92611c9e6040519485611b57565b828452602083830101116101ac57816000926020809301838601378301015290565b9060406003198301126101ac5760043591602435906001600160401b0382116101ac57611cef91600401611c79565b90565b611cef9160e0611d70611d5e611d30611d148651610100808852870190611c1e565b6020870151602087015260408701518682036040880152611c1e565b60018060a01b0360608701511660608601526080860151608086015260a086015185820360a0870152611c1e565b60c085015184820360c0860152611c1e565b9201519060e0818403910152611c1e565b94939091936002549560019182880180981161056b57600088815260209684885260408220908451976001600160401b03988981116120d65780611dc58554611ab0565b978c601f998a8111612305575b50508c9089831160011461229957879261228e575b5050600019600383901b1c191690881b1783555b8b8784015560028301908051908a82116121b25781908c611e1c8554611ab0565b8a811161223d575b50508c908983116001146121d15787926121c6575b5050600019600383901b1c191690881b1790555b600382810180546001600160a01b0319166001600160a01b0390991698909817909755895160059a8b840191908a82116121b25781908c8e611e8f8654611ab0565b908b8211612160575b5050508c908983116001146120f55787926120ea575b5050600019828b1b1c191690881b1790555b805160068301918982116120d6578a611ed98454611ab0565b888111612092575b50508a9087831160011461202d57600794939291869183612022575b5050600019828b1b1c191690881b1790555b0197825196871161200e57611f248954611ab0565b90848211611fcd575b505086928611600114611f66579495508592919083611f5b575b50501b92600019911b1c1916179055600255565b015193503880611f47565b87815286812093969394938691601f198316915b89838310611fb35750505010611f99575b50505050811b019055600255565b01519060f884600019921b161c1916905538808080611f8b565b858701518955909701969485019488935090810190611f7a565b8983528883209085808a01821c8301938b8b10612005575b01901c019085905b828110611ffa5750611f2d565b838155018590611fed565b93508293611fe5565b634e487b7160e01b82526041600452602482fd5b015190503880611efd565b9392918b8992601f1983168589528289209289905b82821061207b575050968360079810612063575b505050811b019055611f0f565b0151600019838d1b60f8161c19169055388080612056565b838a015185558d969094019392830192018f612042565b8487528d8983892092818701831c84019487106120cd575b01901c019089905b8281106120c257508c9150611ee1565b8781550189906120b2565b935082936120aa565b634e487b7160e01b85526041600452602485fd5b015190503880611eae565b8a9350908d91601f198416868a52838a20938a905b82821061213f5750508411612127575b505050811b019055611ec0565b0151600019838d1b60f8161c1916905538808061211a565b91929395968291958786015181550195019301908f918d969594939261210a565b90919293508589528a838a2092818701831c84019487106121a9575b9186959493918e9301901c01915b82811061219b57508f8f9250611e98565b8981558594508c910161218a565b9350829361217c565b634e487b7160e01b86526041600452602486fd5b015190503880611e39565b8a9350908d91601f198416868a52838a20938a905b82821061221c5750508411612203575b505050811b019055611e4d565b015160001960f88460031b161c191690553880806121f6565b91929395968291958786015181550195019301908f918d96959493926121e6565b90919250848852898289209181860160051c8301938610612285575b918c91869594930160051c01915b82811061227757508e9150611e24565b8981558594508c9101612267565b92508192612259565b015190503880611de7565b8a9350908d91601f198416888a52838a20938a905b8282106122e457505084116122cb575b505050811b018355611dfb565b015160001960f88460031b161c191690553880806122be565b91929395968291958786015181550195019301908f918d96959493926122ae565b90919250868852898289209181860160051c830193861061234d575b918c91869594930160051c01915b82811061233f57508e9150611dd2565b8981558594508c910161232f565b92508192612321565b8054906801000000000000000082101561045a576001820180825582101561239d576000526020600020019060018060a01b03166001600160601b0360a01b825416179055565b634e487b7160e01b600052603260045260246000fd5b156123ba57565b60405162461bcd60e51b815260206004820152601760248201527f526573656172636820646f6573206e6f742065786973740000000000000000006044820152606490fd5b3d1561242a573d9061241082611c5e565b9161241e6040519384611b57565b82523d6000602084013e565b606090565b9060405161243c81611b3b565b60e06124b06007839561244e81611b78565b85526001810154602086015261246660028201611b78565b604086015260038101546001600160a01b031660608601526004810154608086015261249460058201611b78565b60a08601526124a560068201611b78565b60c086015201611b78565b910152565b604051906124c282611b3b565b8160e060609182815260006020820152826040820152600083820152600060808201528260a08201528260c08201520152565b6001600160401b03811161045a5760051b60200190565b600019811461056b5760010190565b805182101561239d5760209160051b01019056fea2646970667358221220a7cb939517b1d0460e3da5f179599a58827ab937a9e0e3265cdfd1a3c354279564736f6c63430008130033",
  "linkReferences": {},
  "deployedLinkReferences": {}
}